{
  "_format": "hh-sol-artifact-1",
  "contractName": "Education_system",
  "sourceName": "contracts/Education_system.sol",
  "abi": [
    {
      "anonymous": false,
      "inputs": [
        {
          "indexed": false,
          "internalType": "string",
          "name": "course_name",
          "type": "string"
        }
      ],
      "name": "new_course",
      "type": "event"
    },
    {
      "anonymous": false,
      "inputs": [
        {
          "indexed": false,
          "internalType": "address",
          "name": "person",
          "type": "address"
        },
        {
          "indexed": false,
          "internalType": "string",
          "name": "role",
          "type": "string"
        }
      ],
      "name": "new_person",
      "type": "event"
    },
    {
      "inputs": [
        {
          "internalType": "address",
          "name": "",
          "type": "address"
        }
      ],
      "name": "_isStudent",
      "outputs": [
        {
          "internalType": "bool",
          "name": "",
          "type": "bool"
        }
      ],
      "stateMutability": "view",
      "type": "function"
    },
    {
      "inputs": [
        {
          "internalType": "address",
          "name": "",
          "type": "address"
        }
      ],
      "name": "_isTeacher",
      "outputs": [
        {
          "internalType": "bool",
          "name": "",
          "type": "bool"
        }
      ],
      "stateMutability": "view",
      "type": "function"
    },
    {
      "inputs": [
        {
          "internalType": "string",
          "name": "course_name",
          "type": "string"
        },
        {
          "internalType": "uint256",
          "name": "datetime",
          "type": "uint256"
        }
      ],
      "name": "add_lesson",
      "outputs": [],
      "stateMutability": "nonpayable",
      "type": "function"
    },
    {
      "inputs": [
        {
          "internalType": "address",
          "name": "person",
          "type": "address"
        },
        {
          "internalType": "bool",
          "name": "isteacher",
          "type": "bool"
        }
      ],
      "name": "add_person",
      "outputs": [],
      "stateMutability": "nonpayable",
      "type": "function"
    },
    {
      "inputs": [],
      "name": "admin",
      "outputs": [
        {
          "internalType": "address",
          "name": "",
          "type": "address"
        }
      ],
      "stateMutability": "view",
      "type": "function"
    },
    {
      "inputs": [
        {
          "internalType": "string",
          "name": "",
          "type": "string"
        }
      ],
      "name": "all_courses",
      "outputs": [
        {
          "internalType": "string",
          "name": "course_name",
          "type": "string"
        }
      ],
      "stateMutability": "view",
      "type": "function"
    },
    {
      "inputs": [
        {
          "internalType": "address",
          "name": "student",
          "type": "address"
        },
        {
          "internalType": "string",
          "name": "course_name",
          "type": "string"
        }
      ],
      "name": "approve_student",
      "outputs": [],
      "stateMutability": "nonpayable",
      "type": "function"
    },
    {
      "inputs": [
        {
          "internalType": "string",
          "name": "course_name",
          "type": "string"
        }
      ],
      "name": "attend_course",
      "outputs": [],
      "stateMutability": "nonpayable",
      "type": "function"
    },
    {
      "inputs": [
        {
          "internalType": "string",
          "name": "course_name",
          "type": "string"
        },
        {
          "internalType": "uint256",
          "name": "start_dt",
          "type": "uint256"
        },
        {
          "internalType": "uint256",
          "name": "end_dt",
          "type": "uint256"
        }
      ],
      "name": "check_course_marks",
      "outputs": [
        {
          "components": [
            {
              "internalType": "string",
              "name": "course_name",
              "type": "string"
            },
            {
              "internalType": "address",
              "name": "student",
              "type": "address"
            },
            {
              "internalType": "uint256",
              "name": "date",
              "type": "uint256"
            },
            {
              "internalType": "uint256",
              "name": "mark",
              "type": "uint256"
            }
          ],
          "internalType": "struct Education_system.Mark[]",
          "name": "filtered_marks",
          "type": "tuple[]"
        }
      ],
      "stateMutability": "view",
      "type": "function"
    },
    {
      "inputs": [
        {
          "internalType": "string",
          "name": "course_name",
          "type": "string"
        },
        {
          "internalType": "uint256",
          "name": "start_dt",
          "type": "uint256"
        },
        {
          "internalType": "uint256",
          "name": "end_dt",
          "type": "uint256"
        }
      ],
      "name": "check_course_schedule",
      "outputs": [
        {
          "internalType": "uint256[]",
          "name": "filtered_schedule",
          "type": "uint256[]"
        }
      ],
      "stateMutability": "view",
      "type": "function"
    },
    {
      "inputs": [
        {
          "internalType": "address",
          "name": "person",
          "type": "address"
        },
        {
          "internalType": "uint256",
          "name": "start_dt",
          "type": "uint256"
        },
        {
          "internalType": "uint256",
          "name": "end_dt",
          "type": "uint256"
        }
      ],
      "name": "check_person_marks",
      "outputs": [
        {
          "components": [
            {
              "internalType": "string",
              "name": "course_name",
              "type": "string"
            },
            {
              "internalType": "address",
              "name": "student",
              "type": "address"
            },
            {
              "internalType": "uint256",
              "name": "date",
              "type": "uint256"
            },
            {
              "internalType": "uint256",
              "name": "mark",
              "type": "uint256"
            }
          ],
          "internalType": "struct Education_system.Mark[]",
          "name": "filtered_marks",
          "type": "tuple[]"
        }
      ],
      "stateMutability": "view",
      "type": "function"
    },
    {
      "inputs": [
        {
          "internalType": "address",
          "name": "person",
          "type": "address"
        },
        {
          "internalType": "uint256",
          "name": "start_dt",
          "type": "uint256"
        },
        {
          "internalType": "uint256",
          "name": "end_dt",
          "type": "uint256"
        }
      ],
      "name": "check_persons_schedule",
      "outputs": [
        {
          "components": [
            {
              "internalType": "string",
              "name": "course_name",
              "type": "string"
            },
            {
              "internalType": "uint256[]",
              "name": "schedule",
              "type": "uint256[]"
            }
          ],
          "internalType": "struct Education_system.Schedule[]",
          "name": "persons_schedule",
          "type": "tuple[]"
        }
      ],
      "stateMutability": "view",
      "type": "function"
    },
    {
      "inputs": [
        {
          "internalType": "string",
          "name": "course_name",
          "type": "string"
        }
      ],
      "name": "create_course",
      "outputs": [],
      "stateMutability": "nonpayable",
      "type": "function"
    },
    {
      "inputs": [
        {
          "internalType": "address",
          "name": "teacher",
          "type": "address"
        },
        {
          "internalType": "string",
          "name": "course_name",
          "type": "string"
        }
      ],
      "name": "define_course_teachers",
      "outputs": [],
      "stateMutability": "nonpayable",
      "type": "function"
    },
    {
      "inputs": [
        {
          "internalType": "string",
          "name": "course_name",
          "type": "string"
        },
        {
          "internalType": "uint256",
          "name": "datetime_old",
          "type": "uint256"
        },
        {
          "internalType": "uint256",
          "name": "datetime_new",
          "type": "uint256"
        }
      ],
      "name": "edit_lesson",
      "outputs": [],
      "stateMutability": "nonpayable",
      "type": "function"
    },
    {
      "inputs": [
        {
          "internalType": "string",
          "name": "currcourse",
          "type": "string"
        }
      ],
      "name": "get_course_schedule",
      "outputs": [
        {
          "internalType": "uint256[]",
          "name": "",
          "type": "uint256[]"
        }
      ],
      "stateMutability": "view",
      "type": "function"
    },
    {
      "inputs": [
        {
          "internalType": "string",
          "name": "currcourse",
          "type": "string"
        }
      ],
      "name": "get_course_students",
      "outputs": [
        {
          "internalType": "address[]",
          "name": "",
          "type": "address[]"
        }
      ],
      "stateMutability": "view",
      "type": "function"
    },
    {
      "inputs": [
        {
          "internalType": "string",
          "name": "currcourse",
          "type": "string"
        }
      ],
      "name": "get_course_teachers",
      "outputs": [
        {
          "internalType": "address[]",
          "name": "",
          "type": "address[]"
        }
      ],
      "stateMutability": "view",
      "type": "function"
    },
    {
      "inputs": [
        {
          "internalType": "address",
          "name": "student",
          "type": "address"
        },
        {
          "internalType": "string",
          "name": "course_name",
          "type": "string"
        },
        {
          "internalType": "uint256",
          "name": "date",
          "type": "uint256"
        },
        {
          "internalType": "uint256",
          "name": "mark",
          "type": "uint256"
        }
      ],
      "name": "mark_student",
      "outputs": [],
      "stateMutability": "nonpayable",
      "type": "function"
    },
    {
      "inputs": [
        {
          "internalType": "address",
          "name": "",
          "type": "address"
        },
        {
          "internalType": "uint256",
          "name": "",
          "type": "uint256"
        }
      ],
      "name": "person_courses",
      "outputs": [
        {
          "internalType": "string",
          "name": "",
          "type": "string"
        }
      ],
      "stateMutability": "view",
      "type": "function"
    },
    {
      "inputs": [
        {
          "internalType": "address",
          "name": "",
          "type": "address"
        },
        {
          "internalType": "string",
          "name": "",
          "type": "string"
        }
      ],
      "name": "presence",
      "outputs": [
        {
          "internalType": "uint256",
          "name": "",
          "type": "uint256"
        }
      ],
      "stateMutability": "view",
      "type": "function"
    },
    {
      "inputs": [
        {
          "internalType": "address",
          "name": "student",
          "type": "address"
        },
        {
          "internalType": "string",
          "name": "course_name",
          "type": "string"
        }
      ],
      "name": "presence_getter",
      "outputs": [
        {
          "internalType": "uint256",
          "name": "",
          "type": "uint256"
        }
      ],
      "stateMutability": "view",
      "type": "function"
    },
    {
      "inputs": [
        {
          "internalType": "string",
          "name": "arg",
          "type": "string"
        }
      ],
      "name": "queue_getter",
      "outputs": [
        {
          "internalType": "address[]",
          "name": "",
          "type": "address[]"
        }
      ],
      "stateMutability": "view",
      "type": "function"
    },
    {
      "inputs": [
        {
          "internalType": "string",
          "name": "course_name",
          "type": "string"
        },
        {
          "internalType": "uint256",
          "name": "datetime",
          "type": "uint256"
        }
      ],
      "name": "remove_lesson",
      "outputs": [],
      "stateMutability": "nonpayable",
      "type": "function"
    },
    {
      "inputs": [
        {
          "internalType": "string",
          "name": "courseName",
          "type": "string"
        }
      ],
      "name": "results_getter",
      "outputs": [
        {
          "internalType": "uint256",
          "name": "avg_mark",
          "type": "uint256"
        }
      ],
      "stateMutability": "view",
      "type": "function"
    },
    {
      "inputs": [
        {
          "internalType": "address",
          "name": "student",
          "type": "address"
        },
        {
          "internalType": "string",
          "name": "course_name",
          "type": "string"
        }
      ],
      "name": "student_presence",
      "outputs": [],
      "stateMutability": "nonpayable",
      "type": "function"
    },
    {
      "inputs": [
        {
          "internalType": "address",
          "name": "student",
          "type": "address"
        }
      ],
      "name": "student_statistics",
      "outputs": [
        {
          "internalType": "string[]",
          "name": "results",
          "type": "string[]"
        }
      ],
      "stateMutability": "nonpayable",
      "type": "function"
    },
    {
      "inputs": [
        {
          "internalType": "string",
          "name": "",
          "type": "string"
        },
        {
          "internalType": "uint256",
          "name": "",
          "type": "uint256"
        }
      ],
      "name": "students_waiting_approval",
      "outputs": [
        {
          "internalType": "address",
          "name": "",
          "type": "address"
        }
      ],
      "stateMutability": "view",
      "type": "function"
    },
    {
      "inputs": [
        {
          "internalType": "string",
          "name": "",
          "type": "string"
        },
        {
          "internalType": "uint256",
          "name": "",
          "type": "uint256"
        }
      ],
      "name": "sum_num_marks",
      "outputs": [
        {
          "internalType": "uint256",
          "name": "",
          "type": "uint256"
        }
      ],
      "stateMutability": "view",
      "type": "function"
    },
    {
      "inputs": [
        {
          "internalType": "uint256",
          "name": "value",
          "type": "uint256"
        }
      ],
      "name": "toString",
      "outputs": [
        {
          "internalType": "string",
          "name": "",
          "type": "string"
        }
      ],
      "stateMutability": "pure",
      "type": "function"
    }
  ],
  "bytecode": "0x6080604052348015600f57600080fd5b50336000806101000a81548173ffffffffffffffffffffffffffffffffffffffff021916908373ffffffffffffffffffffffffffffffffffffffff160217905550614b058061005f6000396000f3fe608060405234801561001057600080fd5b50600436106101da5760003560e01c80638f55293011610104578063d10a5a80116100a2578063f040bed211610071578063f040bed21461061f578063f77253f31461063b578063f851a44014610657578063fc13197214610675576101da565b8063d10a5a801461059b578063e0f3bc13146105cb578063ee53806d146105e7578063efd6dcd214610603576101da565b8063a6aeb92a116100de578063a6aeb92a146104db578063b11054801461050b578063b978d6611461053b578063c55e27851461056b576101da565b80638f55293014610473578063929bdb02146104a3578063a658f7fa146104bf576101da565b80636646ac3e1161017c5780637afe78631161014b5780637afe7863146103c75780638b81f926146103e35780638cd50c36146104135780638d8f272014610443576101da565b80636646ac3e1461031b578063689a1a441461034b5780636900a3ae146103675780636b542a5e14610397576101da565b806321e59fac116101b857806321e59fac1461026f5780632ee948da1461028b5780633bdfaba4146102bb5780635c4bee18146102eb576101da565b80630dddfd50146101df578063116f1a211461020f5780631d8b682c1461023f575b600080fd5b6101f960048036038101906101f49190613a51565b6106a5565b6040516102069190613ac6565b60405180910390f35b61022960048036038101906102249190613b0d565b6106e0565b6040516102369190613bcc565b60405180910390f35b61025960048036038101906102549190613bee565b610799565b6040516102669190613cf5565b60405180910390f35b61028960048036038101906102849190613d4f565b610845565b005b6102a560048036038101906102a09190613bee565b610a5f565b6040516102b29190613ac6565b60405180910390f35b6102d560048036038101906102d09190613d8f565b610b62565b6040516102e29190613dcb565b60405180910390f35b61030560048036038101906103009190613a51565b610b82565b6040516103129190613ac6565b60405180910390f35b61033560048036038101906103309190613bee565b610be8565b6040516103429190613ea4565b60405180910390f35b61036560048036038101906103609190613ec6565b610c61565b005b610381600480360381019061037c9190613f22565b610e47565b60405161038e9190613bcc565b60405180910390f35b6103b160048036038101906103ac9190613bee565b610fa6565b6040516103be9190613cf5565b60405180910390f35b6103e160048036038101906103dc9190613ec6565b611055565b005b6103fd60048036038101906103f89190613bee565b61118d565b60405161040a9190613cf5565b60405180910390f35b61042d60048036038101906104289190613f4f565b61123c565b60405161043a9190613ea4565b60405180910390f35b61045d60048036038101906104589190613f4f565b611429565b60405161046a919061412d565b60405180910390f35b61048d60048036038101906104889190613ec6565b611730565b60405161049a919061415e565b60405180910390f35b6104bd60048036038101906104b89190613f4f565b611794565b005b6104d960048036038101906104d49190613a51565b61197c565b005b6104f560048036038101906104f09190613d8f565b611bc9565b604051610502919061423b565b60405180910390f35b61052560048036038101906105209190613ec6565b612285565b6040516105329190613ac6565b60405180910390f35b61055560048036038101906105509190613bee565b6122c3565b6040516105629190613bcc565b60405180910390f35b6105856004803603810190610580919061425d565b61237f565b6040516105929190614425565b60405180910390f35b6105b560048036038101906105b09190613d8f565b61275e565b6040516105c29190613dcb565b60405180910390f35b6105e560048036038101906105e09190613a51565b61277e565b005b61060160048036038101906105fc9190613bee565b612b31565b005b61061d60048036038101906106189190614447565b612c64565b005b61063960048036038101906106349190613a51565b613157565b005b61065560048036038101906106509190613bee565b6132ff565b005b61065f6133d9565b60405161066c919061415e565b60405180910390f35b61068f600480360381019061068a919061425d565b6133fd565b60405161069c919061412d565b60405180910390f35b600660205281600052604060002081805160208101820180518482526020830160208501208183528095505050505050600091509150505481565b600560205281600052604060002081815481106106fc57600080fd5b90600052602060002001600091509150508054610718906144f9565b80601f0160208091040260200160405190810160405280929190818152602001828054610744906144f9565b80156107915780601f1061076657610100808354040283529160200191610791565b820191906000526020600020905b81548152906001019060200180831161077457829003601f168201915b505050505081565b60606004826040516107ab9190614566565b908152602001604051809103902080548060200260200160405190810160405280929190818152602001828054801561083957602002820191906000526020600020905b8160009054906101000a900473ffffffffffffffffffffffffffffffffffffffff1673ffffffffffffffffffffffffffffffffffffffff16815260200190600101908083116107ef575b50505050509050919050565b60008054906101000a900473ffffffffffffffffffffffffffffffffffffffff1673ffffffffffffffffffffffffffffffffffffffff163373ffffffffffffffffffffffffffffffffffffffff161461089d57600080fd5b606081600160008573ffffffffffffffffffffffffffffffffffffffff1673ffffffffffffffffffffffffffffffffffffffff16815260200190815260200160002060006101000a81548160ff0219169083151502179055508115610990576040518060400160405280600781526020017f5465616368657200000000000000000000000000000000000000000000000000815250905060018060008573ffffffffffffffffffffffffffffffffffffffff1673ffffffffffffffffffffffffffffffffffffffff16815260200190815260200160002060006101000a81548160ff021916908315150217905550610a21565b6001600260008573ffffffffffffffffffffffffffffffffffffffff1673ffffffffffffffffffffffffffffffffffffffff16815260200190815260200160002060006101000a81548160ff0219169083151502179055506040518060400160405280600781526020017f53747564656e740000000000000000000000000000000000000000000000000081525090505b7f5d39c62385eb0d7bf23a874a4aa141e14ff81455e63ca8b905028351ba9931b58382604051610a5292919061457d565b60405180910390a1505050565b6000600982604051610a719190614566565b9081526020016040518091039020600160028110610a9257610a916145ad565b5b01546064600984604051610aa69190614566565b9081526020016040518091039020600060028110610ac757610ac66145ad565b5b0154610ad3919061460b565b610add919061467c565b9050600982604051610aef9190614566565b9081526020016040518091039020600160028110610b1057610b0f6145ad565b5b01546064600984604051610b249190614566565b9081526020016040518091039020600060028110610b4557610b446145ad565b5b0154610b51919061460b565b610b5b919061467c565b9050919050565b60026020528060005260406000206000915054906101000a900460ff1681565b6000600660008473ffffffffffffffffffffffffffffffffffffffff1673ffffffffffffffffffffffffffffffffffffffff16815260200190815260200160002082604051610bd19190614566565b908152602001604051809103902054905092915050565b6060600382604051610bfa9190614566565b9081526020016040518091039020600301805480602002602001604051908101604052809291908181526020018280548015610c5557602002820191906000526020600020905b815481526020019060010190808311610c41575b50505050509050919050565b3382600080600383604051610c769190614566565b908152602001604051809103902060010180549050905060005b81811015610d3e578473ffffffffffffffffffffffffffffffffffffffff16600385604051610cbf9190614566565b90815260200160405180910390206001018281548110610ce257610ce16145ad565b5b9060005260206000200160009054906101000a900473ffffffffffffffffffffffffffffffffffffffff1673ffffffffffffffffffffffffffffffffffffffff1603610d315760019250610d3e565b8080600101915050610c90565b5081610d4957600080fd5b6000600387604051610d5b9190614566565b9081526020016040518091039020600301805480602002602001604051908101604052809291908181526020018280548015610db657602002820191906000526020600020905b815481526020019060010190808311610da2575b5050505050905060005b8151811015610e3d5786828281518110610ddd57610ddc6145ad565b5b602002602001015103610e3057600388604051610dfa9190614566565b90815260200160405180910390206003018181548110610e1d57610e1c6145ad565b5b9060005260206000200160009055610e3d565b8080600101915050610dc0565b5050505050505050565b606060008203610e8e576040518060400160405280600181526020017f30000000000000000000000000000000000000000000000000000000000000008152509050610fa1565b600082905060005b60008214610ec0578080610ea9906146ad565b915050600a82610eb9919061467c565b9150610e96565b60008167ffffffffffffffff811115610edc57610edb613926565b5b6040519080825280601f01601f191660200182016040528015610f0e5781602001600182028036833780820191505090505b5090505b60008514610f9a578180610f25906146f5565b925050600a85610f35919061471e565b6030610f41919061474f565b60f81b818381518110610f5757610f566145ad565b5b60200101907effffffffffffffffffffffffffffffffffffffffffffffffffffffffffffff1916908160001a905350600a85610f93919061467c565b9450610f12565b8093505050505b919050565b6060600382604051610fb89190614566565b908152602001604051809103902060020180548060200260200160405190810160405280929190818152602001828054801561104957602002820191906000526020600020905b8160009054906101000a900473ffffffffffffffffffffffffffffffffffffffff1673ffffffffffffffffffffffffffffffffffffffff1681526020019060010190808311610fff575b50505050509050919050565b338260008060038360405161106a9190614566565b908152602001604051809103902060010180549050905060005b81811015611132578473ffffffffffffffffffffffffffffffffffffffff166003856040516110b39190614566565b908152602001604051809103902060010182815481106110d6576110d56145ad565b5b9060005260206000200160009054906101000a900473ffffffffffffffffffffffffffffffffffffffff1673ffffffffffffffffffffffffffffffffffffffff16036111255760019250611132565b8080600101915050611084565b508161113d57600080fd5b60038660405161114d9190614566565b9081526020016040518091039020600301859080600181540180825580915050600190039060005260206000200160009091909190915055505050505050565b606060038260405161119f9190614566565b908152602001604051809103902060010180548060200260200160405190810160405280929190818152602001828054801561123057602002820191906000526020600020905b8160009054906101000a900473ffffffffffffffffffffffffffffffffffffffff1673ffffffffffffffffffffffffffffffffffffffff16815260200190600101908083116111e6575b50505050509050919050565b606060006003856040516112509190614566565b90815260200160405180910390206003018054806020026020016040519081016040528092919081815260200182805480156112ab57602002820191906000526020600020905b815481526020019060010190808311611297575b505050505090506000805b825181101561132457858382815181106112d3576112d26145ad565b5b6020026020010151101580156113035750848382815181106112f8576112f76145ad565b5b602002602001015111155b15611317578180611313906146ad565b9250505b80806001019150506112b6565b508067ffffffffffffffff81111561133f5761133e613926565b5b60405190808252806020026020018201604052801561136d5781602001602082028036833780820191505090505b5092506000905060005b825181101561141f5785838281518110611394576113936145ad565b5b6020026020010151101580156113c45750848382815181106113b9576113b86145ad565b5b602002602001015111155b15611412578281815181106113dc576113db6145ad565b5b60200260200101518483815181106113f7576113f66145ad565b5b602002602001018181525050818061140e906146ad565b9250505b8080600101915050611377565b5050509392505050565b6060600060088560405161143d9190614566565b9081526020016040518091039020805480602002602001604051908101604052809291908181526020016000905b82821015611599578382906000526020600020906004020160405180608001604052908160008201805461149e906144f9565b80601f01602080910402602001604051908101604052809291908181526020018280546114ca906144f9565b80156115175780601f106114ec57610100808354040283529160200191611517565b820191906000526020600020905b8154815290600101906020018083116114fa57829003601f168201915b505050505081526020016001820160009054906101000a900473ffffffffffffffffffffffffffffffffffffffff1673ffffffffffffffffffffffffffffffffffffffff1673ffffffffffffffffffffffffffffffffffffffff168152602001600282015481526020016003820154815250508152602001906001019061146b565b5050505090506000805b825181101561161957858382815181106115c0576115bf6145ad565b5b602002602001015160400151101580156115f85750848382815181106115e9576115e86145ad565b5b60200260200101516040015111155b1561160c578180611608906146ad565b9250505b80806001019150506115a3565b508067ffffffffffffffff81111561163457611633613926565b5b60405190808252806020026020018201604052801561166d57816020015b61165a613725565b8152602001906001900390816116525790505b5092506000905060005b82518110156117265785838281518110611694576116936145ad565b5b602002602001015160400151101580156116cc5750848382815181106116bd576116bc6145ad565b5b60200260200101516040015111155b15611719578281815181106116e4576116e36145ad565b5b60200260200101518483815181106116ff576116fe6145ad565b5b60200260200101819052508180611715906146ad565b9250505b8080600101915050611677565b5050509392505050565b600482805160208101820180518482526020830160208501208183528095505050505050818154811061176257600080fd5b906000526020600020016000915091509054906101000a900473ffffffffffffffffffffffffffffffffffffffff1681565b33836000806003836040516117a99190614566565b908152602001604051809103902060010180549050905060005b81811015611871578473ffffffffffffffffffffffffffffffffffffffff166003856040516117f29190614566565b90815260200160405180910390206001018281548110611815576118146145ad565b5b9060005260206000200160009054906101000a900473ffffffffffffffffffffffffffffffffffffffff1673ffffffffffffffffffffffffffffffffffffffff16036118645760019250611871565b80806001019150506117c3565b508161187c57600080fd5b600060038860405161188e9190614566565b90815260200160405180910390206003018054806020026020016040519081016040528092919081815260200182805480156118e957602002820191906000526020600020905b8154815260200190600101908083116118d5575b5050505050905060005b815181101561197157878282815181106119105761190f6145ad565b5b602002602001015103611964578660038a60405161192e9190614566565b90815260200160405180910390206003018281548110611951576119506145ad565b5b9060005260206000200181905550611971565b80806001019150506118f3565b505050505050505050565b33816000806003836040516119919190614566565b908152602001604051809103902060010180549050905060005b81811015611a59578473ffffffffffffffffffffffffffffffffffffffff166003856040516119da9190614566565b908152602001604051809103902060010182815481106119fd576119fc6145ad565b5b9060005260206000200160009054906101000a900473ffffffffffffffffffffffffffffffffffffffff1673ffffffffffffffffffffffffffffffffffffffff1603611a4c5760019250611a59565b80806001019150506119ab565b5081611a6457600080fd5b8585600080600383604051611a799190614566565b908152602001604051809103902060020180549050905060005b81811015611b41578473ffffffffffffffffffffffffffffffffffffffff16600385604051611ac29190614566565b90815260200160405180910390206002018281548110611ae557611ae46145ad565b5b9060005260206000200160009054906101000a900473ffffffffffffffffffffffffffffffffffffffff1673ffffffffffffffffffffffffffffffffffffffff1603611b345760019250611b41565b8080600101915050611a93565b5081611b4c57600080fd5b600660008b73ffffffffffffffffffffffffffffffffffffffff1673ffffffffffffffffffffffffffffffffffffffff16815260200190815260200160002089604051611b999190614566565b90815260200160405180910390206000815480929190611bb8906146ad565b919050555050505050505050505050565b60606000600560008473ffffffffffffffffffffffffffffffffffffffff1673ffffffffffffffffffffffffffffffffffffffff168152602001908152602001600020805480602002602001604051908101604052809291908181526020016000905b82821015611cd8578382906000526020600020018054611c4b906144f9565b80601f0160208091040260200160405190810160405280929190818152602001828054611c77906144f9565b8015611cc45780601f10611c9957610100808354040283529160200191611cc4565b820191906000526020600020905b815481529060010190602001808311611ca757829003601f168201915b505050505081526020019060010190611c2c565b5050505090506000600760008573ffffffffffffffffffffffffffffffffffffffff1673ffffffffffffffffffffffffffffffffffffffff168152602001908152602001600020805480602002602001604051908101604052809291908181526020016000905b82821015611e6d5783829060005260206000209060040201604051806080016040529081600082018054611d72906144f9565b80601f0160208091040260200160405190810160405280929190818152602001828054611d9e906144f9565b8015611deb5780601f10611dc057610100808354040283529160200191611deb565b820191906000526020600020905b815481529060010190602001808311611dce57829003601f168201915b505050505081526020016001820160009054906101000a900473ffffffffffffffffffffffffffffffffffffffff1673ffffffffffffffffffffffffffffffffffffffff1673ffffffffffffffffffffffffffffffffffffffff1681526020016002820154815260200160038201548152505081526020019060010190611d3f565b50505050905060005b8251811015611f305760006009848381518110611e9657611e956145ad565b5b6020026020010151604051611eab9190614566565b9081526020016040518091039020600060028110611ecc57611ecb6145ad565b5b018190555060006009848381518110611ee857611ee76145ad565b5b6020026020010151604051611efd9190614566565b9081526020016040518091039020600160028110611f1e57611f1d6145ad565b5b01819055508080600101915050611e76565b5060005b815181101561203557818181518110611f5057611f4f6145ad565b5b6020026020010151606001516009838381518110611f7157611f706145ad565b5b602002602001015160000151604051611f8a9190614566565b9081526020016040518091039020600060028110611fab57611faa6145ad565b5b016000828254611fbb919061474f565b925050819055506009828281518110611fd757611fd66145ad565b5b602002602001015160000151604051611ff09190614566565b9081526020016040518091039020600160028110612011576120106145ad565b5b016000815480929190612023906146ad565b91905055508080600101915050611f34565b50815167ffffffffffffffff81111561205157612050613926565b5b60405190808252806020026020018201604052801561208457816020015b606081526020019060019003908161206f5790505b50925060005b825181101561227d57600060098483815181106120aa576120a96145ad565b5b60200260200101516040516120bf9190614566565b90815260200160405180910390206001600281106120e0576120df6145ad565b5b0154606460098685815181106120f9576120f86145ad565b5b602002602001015160405161210e9190614566565b908152602001604051809103902060006002811061212f5761212e6145ad565b5b015461213b919061460b565b612145919061467c565b9050600061215e606483612159919061467c565b610e47565b61217360648461216e919061471e565b610e47565b6040516020016121849291906147a9565b60405160208183030381529060405290508483815181106121a8576121a76145ad565b5b60200260200101518161222f600660008b73ffffffffffffffffffffffffffffffffffffffff1673ffffffffffffffffffffffffffffffffffffffff168152602001908152602001600020888781518110612206576122056145ad565b5b602002602001015160405161221b9190614566565b908152602001604051809103902054610e47565b60405160200161224193929190614802565b604051602081830303815290604052868481518110612263576122626145ad565b5b60200260200101819052505050808060010191505061208a565b505050919050565b60098280516020810182018051848252602083016020850120818352809550505050505081600281106122b757600080fd5b01600091509150505481565b6003818051602081018201805184825260208301602085012081835280955050505050506000915090508060000180546122fc906144f9565b80601f0160208091040260200160405190810160405280929190818152602001828054612328906144f9565b80156123755780601f1061234a57610100808354040283529160200191612375565b820191906000526020600020905b81548152906001019060200180831161235857829003601f168201915b5050505050905081565b60606000600560008673ffffffffffffffffffffffffffffffffffffffff1673ffffffffffffffffffffffffffffffffffffffff168152602001908152602001600020805480602002602001604051908101604052809291908181526020016000905b8282101561248e578382906000526020600020018054612401906144f9565b80601f016020809104026020016040519081016040528092919081815260200182805461242d906144f9565b801561247a5780601f1061244f5761010080835404028352916020019161247a565b820191906000526020600020905b81548152906001019060200180831161245d57829003601f168201915b5050505050815260200190600101906123e2565b505050509050805167ffffffffffffffff8111156124af576124ae613926565b5b6040519080825280602002602001820160405280156124e857816020015b6124d5613763565b8152602001906001900390816124cd5790505b509150600080600090508251811015612753576000915060006003848381518110612516576125156145ad565b5b602002602001015160405161252b9190614566565b908152602001604051809103902060030180548060200260200160405190810160405280929190818152602001828054801561258657602002820191906000526020600020905b815481526020019060010190808311612572575b5050505050905060005b81518110156125fe57878282815181106125ad576125ac6145ad565b5b6020026020010151101580156125dd5750868282815181106125d2576125d16145ad565b5b602002602001015111155b156125f15783806125ed906146ad565b9450505b8080600101915050612590565b5060008367ffffffffffffffff81111561261b5761261a613926565b5b6040519080825280602002602001820160405280156126495781602001602082028036833780820191505090505b5090506000935060005b82518110156126fb57888382815181106126705761266f6145ad565b5b6020026020010151101580156126a0575087838281518110612695576126946145ad565b5b602002602001015111155b156126ee578281815181106126b8576126b76145ad565b5b60200260200101518286815181106126d3576126d26145ad565b5b60200260200101818152505084806126ea906146ad565b9550505b8080600101915050612653565b50604051806040016040528086858151811061271a576127196145ad565b5b602002602001015181526020018281525086848151811061273e5761273d6145ad565b5b60200260200101819052505050505050612757565b5050505b9392505050565b60016020528060005260406000206000915054906101000a900460ff1681565b33816000806003836040516127939190614566565b908152602001604051809103902060010180549050905060005b8181101561285b578473ffffffffffffffffffffffffffffffffffffffff166003856040516127dc9190614566565b908152602001604051809103902060010182815481106127ff576127fe6145ad565b5b9060005260206000200160009054906101000a900473ffffffffffffffffffffffffffffffffffffffff1673ffffffffffffffffffffffffffffffffffffffff160361284e576001925061285b565b80806001019150506127ad565b508161286657600080fd5b85600260008273ffffffffffffffffffffffffffffffffffffffff1673ffffffffffffffffffffffffffffffffffffffff16815260200190815260200160002060009054906101000a900460ff166128bd57600080fd5b60006004876040516128cf9190614566565b908152602001604051809103902080548060200260200160405190810160405280929190818152602001828054801561295d57602002820191906000526020600020905b8160009054906101000a900473ffffffffffffffffffffffffffffffffffffffff1673ffffffffffffffffffffffffffffffffffffffff1681526020019060010190808311612913575b5050505050905060008151905060005b81811015612b25578973ffffffffffffffffffffffffffffffffffffffff1683828151811061299f5761299e6145ad565b5b602002602001015173ffffffffffffffffffffffffffffffffffffffff1603612b18576004896040516129d29190614566565b908152602001604051809103902081815481106129f2576129f16145ad565b5b9060005260206000200160006101000a81549073ffffffffffffffffffffffffffffffffffffffff0219169055600389604051612a2f9190614566565b90815260200160405180910390206002018a9080600181540180825580915050600190039060005260206000200160009091909190916101000a81548173ffffffffffffffffffffffffffffffffffffffff021916908373ffffffffffffffffffffffffffffffffffffffff160217905550600560008b73ffffffffffffffffffffffffffffffffffffffff1673ffffffffffffffffffffffffffffffffffffffff16815260200190815260200160002089908060018154018082558091505060019003906000526020600020016000909190919091509081612b1291906149fd565b50612b25565b808060010191505061296d565b50505050505050505050565b60008054906101000a900473ffffffffffffffffffffffffffffffffffffffff1673ffffffffffffffffffffffffffffffffffffffff163373ffffffffffffffffffffffffffffffffffffffff1614612b8957600080fd5b612b9161377d565b81816000018190525080600383604051612bab9190614566565b90815260200160405180910390206000820151816000019081612bce91906149fd565b506020820151816001019080519060200190612beb9291906137a5565b506040820151816002019080519060200190612c089291906137a5565b506060820151816003019080519060200190612c2592919061382f565b509050507fd17792e34b6194f56b6f6e47d4aca4110ef33e629184c40620e2f2c919340fba82604051612c589190613bcc565b60405180910390a15050565b3383600080600383604051612c799190614566565b908152602001604051809103902060010180549050905060005b81811015612d41578473ffffffffffffffffffffffffffffffffffffffff16600385604051612cc29190614566565b90815260200160405180910390206001018281548110612ce557612ce46145ad565b5b9060005260206000200160009054906101000a900473ffffffffffffffffffffffffffffffffffffffff1673ffffffffffffffffffffffffffffffffffffffff1603612d345760019250612d41565b8080600101915050612c93565b5081612d4c57600080fd5b8787600080600383604051612d619190614566565b908152602001604051809103902060020180549050905060005b81811015612e29578473ffffffffffffffffffffffffffffffffffffffff16600385604051612daa9190614566565b90815260200160405180910390206002018281548110612dcd57612dcc6145ad565b5b9060005260206000200160009054906101000a900473ffffffffffffffffffffffffffffffffffffffff1673ffffffffffffffffffffffffffffffffffffffff1603612e1c5760019250612e29565b8080600101915050612d7b565b5081612e3457600080fd5b60088b604051612e449190614566565b908152602001604051809103902060405180608001604052808d81526020018e73ffffffffffffffffffffffffffffffffffffffff1681526020018c81526020018b81525090806001815401808255809150506001900390600052602060002090600402016000909190919091506000820151816000019081612ec791906149fd565b5060208201518160010160006101000a81548173ffffffffffffffffffffffffffffffffffffffff021916908373ffffffffffffffffffffffffffffffffffffffff16021790555060408201518160020155606082015181600301555050600760008d73ffffffffffffffffffffffffffffffffffffffff1673ffffffffffffffffffffffffffffffffffffffff16815260200190815260200160002060405180608001604052808d81526020018e73ffffffffffffffffffffffffffffffffffffffff1681526020018c81526020018b81525090806001815401808255809150506001900390600052602060002090600402016000909190919091506000820151816000019081612fd991906149fd565b5060208201518160010160006101000a81548173ffffffffffffffffffffffffffffffffffffffff021916908373ffffffffffffffffffffffffffffffffffffffff16021790555060408201518160020155606082015181600301555050600760003373ffffffffffffffffffffffffffffffffffffffff1673ffffffffffffffffffffffffffffffffffffffff16815260200190815260200160002060405180608001604052808d81526020018e73ffffffffffffffffffffffffffffffffffffffff1681526020018c81526020018b815250908060018154018082558091505060019003906000526020600020906004020160009091909190915060008201518160000190816130eb91906149fd565b5060208201518160010160006101000a81548173ffffffffffffffffffffffffffffffffffffffff021916908373ffffffffffffffffffffffffffffffffffffffff16021790555060408201518160020155606082015181600301555050505050505050505050505050565b60008054906101000a900473ffffffffffffffffffffffffffffffffffffffff1673ffffffffffffffffffffffffffffffffffffffff163373ffffffffffffffffffffffffffffffffffffffff16146131af57600080fd5b81600160008273ffffffffffffffffffffffffffffffffffffffff1673ffffffffffffffffffffffffffffffffffffffff16815260200190815260200160002060009054906101000a900460ff1661320657600080fd5b6003826040516132169190614566565b9081526020016040518091039020600101839080600181540180825580915050600190039060005260206000200160009091909190916101000a81548173ffffffffffffffffffffffffffffffffffffffff021916908373ffffffffffffffffffffffffffffffffffffffff160217905550600560008473ffffffffffffffffffffffffffffffffffffffff1673ffffffffffffffffffffffffffffffffffffffff168152602001908152602001600020829080600181540180825580915050600190039060005260206000200160009091909190915090816132f991906149fd565b50505050565b33600260008273ffffffffffffffffffffffffffffffffffffffff1673ffffffffffffffffffffffffffffffffffffffff16815260200190815260200160002060009054906101000a900460ff1661335657600080fd5b6004826040516133669190614566565b9081526020016040518091039020339080600181540180825580915050600190039060005260206000200160009091909190916101000a81548173ffffffffffffffffffffffffffffffffffffffff021916908373ffffffffffffffffffffffffffffffffffffffff1602179055505050565b60008054906101000a900473ffffffffffffffffffffffffffffffffffffffff1681565b60606000600760008673ffffffffffffffffffffffffffffffffffffffff1673ffffffffffffffffffffffffffffffffffffffff168152602001908152602001600020805480602002602001604051908101604052809291908181526020016000905b8282101561358e5783829060005260206000209060040201604051806080016040529081600082018054613493906144f9565b80601f01602080910402602001604051908101604052809291908181526020018280546134bf906144f9565b801561350c5780601f106134e15761010080835404028352916020019161350c565b820191906000526020600020905b8154815290600101906020018083116134ef57829003601f168201915b505050505081526020016001820160009054906101000a900473ffffffffffffffffffffffffffffffffffffffff1673ffffffffffffffffffffffffffffffffffffffff1673ffffffffffffffffffffffffffffffffffffffff1681526020016002820154815260200160038201548152505081526020019060010190613460565b5050505090506000805b825181101561360e57858382815181106135b5576135b46145ad565b5b602002602001015160400151101580156135ed5750848382815181106135de576135dd6145ad565b5b60200260200101516040015111155b156136015781806135fd906146ad565b9250505b8080600101915050613598565b508067ffffffffffffffff81111561362957613628613926565b5b60405190808252806020026020018201604052801561366257816020015b61364f613725565b8152602001906001900390816136475790505b5092506000905060005b825181101561371b5785838281518110613689576136886145ad565b5b602002602001015160400151101580156136c15750848382815181106136b2576136b16145ad565b5b60200260200101516040015111155b1561370e578281815181106136d9576136d86145ad565b5b60200260200101518483815181106136f4576136f36145ad565b5b6020026020010181905250818061370a906146ad565b9250505b808060010191505061366c565b5050509392505050565b604051806080016040528060608152602001600073ffffffffffffffffffffffffffffffffffffffff16815260200160008152602001600081525090565b604051806040016040528060608152602001606081525090565b6040518060800160405280606081526020016060815260200160608152602001606081525090565b82805482825590600052602060002090810192821561381e579160200282015b8281111561381d5782518260006101000a81548173ffffffffffffffffffffffffffffffffffffffff021916908373ffffffffffffffffffffffffffffffffffffffff160217905550916020019190600101906137c5565b5b50905061382b919061387c565b5090565b82805482825590600052602060002090810192821561386b579160200282015b8281111561386a57825182559160200191906001019061384f565b5b509050613878919061387c565b5090565b5b8082111561389557600081600090555060010161387d565b5090565b6000604051905090565b600080fd5b600080fd5b600073ffffffffffffffffffffffffffffffffffffffff82169050919050565b60006138d8826138ad565b9050919050565b6138e8816138cd565b81146138f357600080fd5b50565b600081359050613905816138df565b92915050565b600080fd5b600080fd5b6000601f19601f8301169050919050565b7f4e487b7100000000000000000000000000000000000000000000000000000000600052604160045260246000fd5b61395e82613915565b810181811067ffffffffffffffff8211171561397d5761397c613926565b5b80604052505050565b6000613990613899565b905061399c8282613955565b919050565b600067ffffffffffffffff8211156139bc576139bb613926565b5b6139c582613915565b9050602081019050919050565b82818337600083830152505050565b60006139f46139ef846139a1565b613986565b905082815260208101848484011115613a1057613a0f613910565b5b613a1b8482856139d2565b509392505050565b600082601f830112613a3857613a3761390b565b5b8135613a488482602086016139e1565b91505092915050565b60008060408385031215613a6857613a676138a3565b5b6000613a76858286016138f6565b925050602083013567ffffffffffffffff811115613a9757613a966138a8565b5b613aa385828601613a23565b9150509250929050565b6000819050919050565b613ac081613aad565b82525050565b6000602082019050613adb6000830184613ab7565b92915050565b613aea81613aad565b8114613af557600080fd5b50565b600081359050613b0781613ae1565b92915050565b60008060408385031215613b2457613b236138a3565b5b6000613b32858286016138f6565b9250506020613b4385828601613af8565b9150509250929050565b600081519050919050565b600082825260208201905092915050565b60005b83811015613b87578082015181840152602081019050613b6c565b60008484015250505050565b6000613b9e82613b4d565b613ba88185613b58565b9350613bb8818560208601613b69565b613bc181613915565b840191505092915050565b60006020820190508181036000830152613be68184613b93565b905092915050565b600060208284031215613c0457613c036138a3565b5b600082013567ffffffffffffffff811115613c2257613c216138a8565b5b613c2e84828501613a23565b91505092915050565b600081519050919050565b600082825260208201905092915050565b6000819050602082019050919050565b613c6c816138cd565b82525050565b6000613c7e8383613c63565b60208301905092915050565b6000602082019050919050565b6000613ca282613c37565b613cac8185613c42565b9350613cb783613c53565b8060005b83811015613ce8578151613ccf8882613c72565b9750613cda83613c8a565b925050600181019050613cbb565b5085935050505092915050565b60006020820190508181036000830152613d0f8184613c97565b905092915050565b60008115159050919050565b613d2c81613d17565b8114613d3757600080fd5b50565b600081359050613d4981613d23565b92915050565b60008060408385031215613d6657613d656138a3565b5b6000613d74858286016138f6565b9250506020613d8585828601613d3a565b9150509250929050565b600060208284031215613da557613da46138a3565b5b6000613db3848285016138f6565b91505092915050565b613dc581613d17565b82525050565b6000602082019050613de06000830184613dbc565b92915050565b600081519050919050565b600082825260208201905092915050565b6000819050602082019050919050565b613e1b81613aad565b82525050565b6000613e2d8383613e12565b60208301905092915050565b6000602082019050919050565b6000613e5182613de6565b613e5b8185613df1565b9350613e6683613e02565b8060005b83811015613e97578151613e7e8882613e21565b9750613e8983613e39565b925050600181019050613e6a565b5085935050505092915050565b60006020820190508181036000830152613ebe8184613e46565b905092915050565b60008060408385031215613edd57613edc6138a3565b5b600083013567ffffffffffffffff811115613efb57613efa6138a8565b5b613f0785828601613a23565b9250506020613f1885828601613af8565b9150509250929050565b600060208284031215613f3857613f376138a3565b5b6000613f4684828501613af8565b91505092915050565b600080600060608486031215613f6857613f676138a3565b5b600084013567ffffffffffffffff811115613f8657613f856138a8565b5b613f9286828701613a23565b9350506020613fa386828701613af8565b9250506040613fb486828701613af8565b9150509250925092565b600081519050919050565b600082825260208201905092915050565b6000819050602082019050919050565b600082825260208201905092915050565b600061400682613b4d565b6140108185613fea565b9350614020818560208601613b69565b61402981613915565b840191505092915050565b600060808301600083015184820360008601526140518282613ffb565b91505060208301516140666020860182613c63565b5060408301516140796040860182613e12565b50606083015161408c6060860182613e12565b508091505092915050565b60006140a38383614034565b905092915050565b6000602082019050919050565b60006140c382613fbe565b6140cd8185613fc9565b9350836020820285016140df85613fda565b8060005b8581101561411b57848403895281516140fc8582614097565b9450614107836140ab565b925060208a019950506001810190506140e3565b50829750879550505050505092915050565b6000602082019050818103600083015261414781846140b8565b905092915050565b614158816138cd565b82525050565b6000602082019050614173600083018461414f565b92915050565b600081519050919050565b600082825260208201905092915050565b6000819050602082019050919050565b60006141b18383613ffb565b905092915050565b6000602082019050919050565b60006141d182614179565b6141db8185614184565b9350836020820285016141ed85614195565b8060005b85811015614229578484038952815161420a85826141a5565b9450614215836141b9565b925060208a019950506001810190506141f1565b50829750879550505050505092915050565b6000602082019050818103600083015261425581846141c6565b905092915050565b600080600060608486031215614276576142756138a3565b5b6000614284868287016138f6565b935050602061429586828701613af8565b92505060406142a686828701613af8565b9150509250925092565b600081519050919050565b600082825260208201905092915050565b6000819050602082019050919050565b600082825260208201905092915050565b60006142f882613de6565b61430281856142dc565b935061430d83613e02565b8060005b8381101561433e5781516143258882613e21565b975061433083613e39565b925050600181019050614311565b5085935050505092915050565b600060408301600083015184820360008601526143688282613ffb565b9150506020830151848203602086015261438282826142ed565b9150508091505092915050565b600061439b838361434b565b905092915050565b6000602082019050919050565b60006143bb826142b0565b6143c581856142bb565b9350836020820285016143d7856142cc565b8060005b8581101561441357848403895281516143f4858261438f565b94506143ff836143a3565b925060208a019950506001810190506143db565b50829750879550505050505092915050565b6000602082019050818103600083015261443f81846143b0565b905092915050565b60008060008060808587031215614461576144606138a3565b5b600061446f878288016138f6565b945050602085013567ffffffffffffffff8111156144905761448f6138a8565b5b61449c87828801613a23565b93505060406144ad87828801613af8565b92505060606144be87828801613af8565b91505092959194509250565b7f4e487b7100000000000000000000000000000000000000000000000000000000600052602260045260246000fd5b6000600282049050600182168061451157607f821691505b602082108103614524576145236144ca565b5b50919050565b600081905092915050565b600061454082613b4d565b61454a818561452a565b935061455a818560208601613b69565b80840191505092915050565b60006145728284614535565b915081905092915050565b6000604082019050614592600083018561414f565b81810360208301526145a48184613b93565b90509392505050565b7f4e487b7100000000000000000000000000000000000000000000000000000000600052603260045260246000fd5b7f4e487b7100000000000000000000000000000000000000000000000000000000600052601160045260246000fd5b600061461682613aad565b915061462183613aad565b925082820261462f81613aad565b91508282048414831517614646576146456145dc565b5b5092915050565b7f4e487b7100000000000000000000000000000000000000000000000000000000600052601260045260246000fd5b600061468782613aad565b915061469283613aad565b9250826146a2576146a161464d565b5b828204905092915050565b60006146b882613aad565b91507fffffffffffffffffffffffffffffffffffffffffffffffffffffffffffffffff82036146ea576146e96145dc565b5b600182019050919050565b600061470082613aad565b915060008203614713576147126145dc565b5b600182039050919050565b600061472982613aad565b915061473483613aad565b9250826147445761474361464d565b5b828206905092915050565b600061475a82613aad565b915061476583613aad565b925082820190508082111561477d5761477c6145dc565b5b92915050565b7f2e00000000000000000000000000000000000000000000000000000000000000815250565b60006147b58285614535565b91506147c082614783565b6001820191506147d08284614535565b91508190509392505050565b7f2000000000000000000000000000000000000000000000000000000000000000815250565b600061480e8286614535565b9150614819826147dc565b6001820191506148298285614535565b9150614834826147dc565b6001820191506148448284614535565b9150819050949350505050565b60008190508160005260206000209050919050565b60006020601f8301049050919050565b600082821b905092915050565b6000600883026148b37fffffffffffffffffffffffffffffffffffffffffffffffffffffffffffffffff82614876565b6148bd8683614876565b95508019841693508086168417925050509392505050565b6000819050919050565b60006148fa6148f56148f084613aad565b6148d5565b613aad565b9050919050565b6000819050919050565b614914836148df565b61492861492082614901565b848454614883565b825550505050565b600090565b61493d614930565b61494881848461490b565b505050565b5b8181101561496c57614961600082614935565b60018101905061494e565b5050565b601f8211156149b15761498281614851565b61498b84614866565b8101602085101561499a578190505b6149ae6149a685614866565b83018261494d565b50505b505050565b600082821c905092915050565b60006149d4600019846008026149b6565b1980831691505092915050565b60006149ed83836149c3565b9150826002028217905092915050565b614a0682613b4d565b67ffffffffffffffff811115614a1f57614a1e613926565b5b614a2982546144f9565b614a34828285614970565b600060209050601f831160018114614a675760008415614a55578287015190505b614a5f85826149e1565b865550614ac7565b601f198416614a7586614851565b60005b82811015614a9d57848901518255600182019150602085019450602081019050614a78565b86831015614aba5784890151614ab6601f8916826149c3565b8355505b6001600288020188555050505b50505050505056fea2646970667358221220d83fe7e9bc18196aef1d34b641ddada7530e18206100c7d8105868ce3763eff864736f6c634300081a0033",
  "linkReferences": {},
  "deployedLinkReferences": {}
}