{
  "_format": "hh-sol-artifact-1",
  "contractName": "Roles",
  "sourceName": "contracts/Education_system.sol",
  "abi": [
    {
      "inputs": [],
      "stateMutability": "nonpayable",
      "type": "constructor"
    },
    {
      "anonymous": false,
      "inputs": [
        {
          "indexed": false,
          "internalType": "address",
          "name": "person",
          "type": "address"
        },
        {
          "indexed": false,
          "internalType": "string",
          "name": "role",
          "type": "string"
        }
      ],
      "name": "new_person",
      "type": "event"
    },
    {
      "inputs": [
        {
          "internalType": "address",
          "name": "",
          "type": "address"
        }
      ],
      "name": "_isStudent",
      "outputs": [
        {
          "internalType": "bool",
          "name": "",
          "type": "bool"
        }
      ],
      "stateMutability": "view",
      "type": "function"
    },
    {
      "inputs": [
        {
          "internalType": "address",
          "name": "",
          "type": "address"
        }
      ],
      "name": "_isTeacher",
      "outputs": [
        {
          "internalType": "bool",
          "name": "",
          "type": "bool"
        }
      ],
      "stateMutability": "view",
      "type": "function"
    },
    {
      "inputs": [
        {
          "internalType": "address",
          "name": "person",
          "type": "address"
        },
        {
          "internalType": "bool",
          "name": "isteacher",
          "type": "bool"
        }
      ],
      "name": "add_person",
      "outputs": [],
      "stateMutability": "nonpayable",
      "type": "function"
    },
    {
      "inputs": [],
      "name": "admin",
      "outputs": [
        {
          "internalType": "address",
          "name": "",
          "type": "address"
        }
      ],
      "stateMutability": "view",
      "type": "function"
    },
    {
      "inputs": [
        {
          "internalType": "string",
          "name": "",
          "type": "string"
        }
      ],
      "name": "all_courses",
      "outputs": [
        {
          "internalType": "string",
          "name": "course_name",
          "type": "string"
        }
      ],
      "stateMutability": "view",
      "type": "function"
    },
    {
      "inputs": [
        {
          "internalType": "string",
          "name": "currcourse",
          "type": "string"
        }
      ],
      "name": "get_course_schedule",
      "outputs": [
        {
          "internalType": "uint256[]",
          "name": "",
          "type": "uint256[]"
        }
      ],
      "stateMutability": "view",
      "type": "function"
    },
    {
      "inputs": [
        {
          "internalType": "string",
          "name": "currcourse",
          "type": "string"
        }
      ],
      "name": "get_course_students",
      "outputs": [
        {
          "internalType": "address[]",
          "name": "",
          "type": "address[]"
        }
      ],
      "stateMutability": "view",
      "type": "function"
    },
    {
      "inputs": [
        {
          "internalType": "string",
          "name": "currcourse",
          "type": "string"
        }
      ],
      "name": "get_course_teachers",
      "outputs": [
        {
          "internalType": "address[]",
          "name": "",
          "type": "address[]"
        }
      ],
      "stateMutability": "view",
      "type": "function"
    },
    {
      "inputs": [
        {
          "internalType": "uint256",
          "name": "value",
          "type": "uint256"
        }
      ],
      "name": "toString",
      "outputs": [
        {
          "internalType": "string",
          "name": "",
          "type": "string"
        }
      ],
      "stateMutability": "pure",
      "type": "function"
    }
  ],
  "bytecode": "0x6080604052348015600f57600080fd5b50336000806101000a81548173ffffffffffffffffffffffffffffffffffffffff021916908373ffffffffffffffffffffffffffffffffffffffff1602179055506110fd8061005f6000396000f3fe608060405234801561001057600080fd5b50600436106100935760003560e01c80636b542a5e116100665780636b542a5e146101445780638b81f92614610174578063b978d661146101a4578063d10a5a80146101d4578063f851a4401461020457610093565b806321e59fac146100985780633bdfaba4146100b45780636646ac3e146100e45780636900a3ae14610114575b600080fd5b6100b260048036038101906100ad919061093c565b610222565b005b6100ce60048036038101906100c9919061097c565b61043c565b6040516100db91906109b8565b60405180910390f35b6100fe60048036038101906100f99190610b19565b61045c565b60405161010b9190610c2a565b60405180910390f35b61012e60048036038101906101299190610c78565b6104d5565b60405161013b9190610d24565b60405180910390f35b61015e60048036038101906101599190610b19565b610634565b60405161016b9190610e04565b60405180910390f35b61018e60048036038101906101899190610b19565b6106e3565b60405161019b9190610e04565b60405180910390f35b6101be60048036038101906101b99190610b19565b610792565b6040516101cb9190610d24565b60405180910390f35b6101ee60048036038101906101e9919061097c565b61084e565b6040516101fb91906109b8565b60405180910390f35b61020c61086e565b6040516102199190610e35565b60405180910390f35b60008054906101000a900473ffffffffffffffffffffffffffffffffffffffff1673ffffffffffffffffffffffffffffffffffffffff163373ffffffffffffffffffffffffffffffffffffffff161461027a57600080fd5b606081600160008573ffffffffffffffffffffffffffffffffffffffff1673ffffffffffffffffffffffffffffffffffffffff16815260200190815260200160002060006101000a81548160ff021916908315150217905550811561036d576040518060400160405280600781526020017f5465616368657200000000000000000000000000000000000000000000000000815250905060018060008573ffffffffffffffffffffffffffffffffffffffff1673ffffffffffffffffffffffffffffffffffffffff16815260200190815260200160002060006101000a81548160ff0219169083151502179055506103fe565b6001600260008573ffffffffffffffffffffffffffffffffffffffff1673ffffffffffffffffffffffffffffffffffffffff16815260200190815260200160002060006101000a81548160ff0219169083151502179055506040518060400160405280600781526020017f53747564656e740000000000000000000000000000000000000000000000000081525090505b7f5d39c62385eb0d7bf23a874a4aa141e14ff81455e63ca8b905028351ba9931b5838260405161042f929190610e50565b60405180910390a1505050565b60026020528060005260406000206000915054906101000a900460ff1681565b606060038260405161046e9190610ebc565b90815260200160405180910390206003018054806020026020016040519081016040528092919081815260200182805480156104c957602002820191906000526020600020905b8154815260200190600101908083116104b5575b50505050509050919050565b60606000820361051c576040518060400160405280600181526020017f3000000000000000000000000000000000000000000000000000000000000000815250905061062f565b600082905060005b6000821461054e57808061053790610f02565b915050600a826105479190610f79565b9150610524565b60008167ffffffffffffffff81111561056a576105696109ee565b5b6040519080825280601f01601f19166020018201604052801561059c5781602001600182028036833780820191505090505b5090505b600085146106285781806105b390610faa565b925050600a856105c39190610fd3565b60306105cf9190611004565b60f81b8183815181106105e5576105e4611038565b5b60200101907effffffffffffffffffffffffffffffffffffffffffffffffffffffffffffff1916908160001a905350600a856106219190610f79565b94506105a0565b8093505050505b919050565b60606003826040516106469190610ebc565b90815260200160405180910390206002018054806020026020016040519081016040528092919081815260200182805480156106d757602002820191906000526020600020905b8160009054906101000a900473ffffffffffffffffffffffffffffffffffffffff1673ffffffffffffffffffffffffffffffffffffffff168152602001906001019080831161068d575b50505050509050919050565b60606003826040516106f59190610ebc565b908152602001604051809103902060010180548060200260200160405190810160405280929190818152602001828054801561078657602002820191906000526020600020905b8160009054906101000a900473ffffffffffffffffffffffffffffffffffffffff1673ffffffffffffffffffffffffffffffffffffffff168152602001906001019080831161073c575b50505050509050919050565b6003818051602081018201805184825260208301602085012081835280955050505050506000915090508060000180546107cb90611096565b80601f01602080910402602001604051908101604052809291908181526020018280546107f790611096565b80156108445780601f1061081957610100808354040283529160200191610844565b820191906000526020600020905b81548152906001019060200180831161082757829003601f168201915b5050505050905081565b60016020528060005260406000206000915054906101000a900460ff1681565b60008054906101000a900473ffffffffffffffffffffffffffffffffffffffff1681565b6000604051905090565b600080fd5b600080fd5b600073ffffffffffffffffffffffffffffffffffffffff82169050919050565b60006108d1826108a6565b9050919050565b6108e1816108c6565b81146108ec57600080fd5b50565b6000813590506108fe816108d8565b92915050565b60008115159050919050565b61091981610904565b811461092457600080fd5b50565b60008135905061093681610910565b92915050565b600080604083850312156109535761095261089c565b5b6000610961858286016108ef565b925050602061097285828601610927565b9150509250929050565b6000602082840312156109925761099161089c565b5b60006109a0848285016108ef565b91505092915050565b6109b281610904565b82525050565b60006020820190506109cd60008301846109a9565b92915050565b600080fd5b600080fd5b6000601f19601f8301169050919050565b7f4e487b7100000000000000000000000000000000000000000000000000000000600052604160045260246000fd5b610a26826109dd565b810181811067ffffffffffffffff82111715610a4557610a446109ee565b5b80604052505050565b6000610a58610892565b9050610a648282610a1d565b919050565b600067ffffffffffffffff821115610a8457610a836109ee565b5b610a8d826109dd565b9050602081019050919050565b82818337600083830152505050565b6000610abc610ab784610a69565b610a4e565b905082815260208101848484011115610ad857610ad76109d8565b5b610ae3848285610a9a565b509392505050565b600082601f830112610b0057610aff6109d3565b5b8135610b10848260208601610aa9565b91505092915050565b600060208284031215610b2f57610b2e61089c565b5b600082013567ffffffffffffffff811115610b4d57610b4c6108a1565b5b610b5984828501610aeb565b91505092915050565b600081519050919050565b600082825260208201905092915050565b6000819050602082019050919050565b6000819050919050565b610ba181610b8e565b82525050565b6000610bb38383610b98565b60208301905092915050565b6000602082019050919050565b6000610bd782610b62565b610be18185610b6d565b9350610bec83610b7e565b8060005b83811015610c1d578151610c048882610ba7565b9750610c0f83610bbf565b925050600181019050610bf0565b5085935050505092915050565b60006020820190508181036000830152610c448184610bcc565b905092915050565b610c5581610b8e565b8114610c6057600080fd5b50565b600081359050610c7281610c4c565b92915050565b600060208284031215610c8e57610c8d61089c565b5b6000610c9c84828501610c63565b91505092915050565b600081519050919050565b600082825260208201905092915050565b60005b83811015610cdf578082015181840152602081019050610cc4565b60008484015250505050565b6000610cf682610ca5565b610d008185610cb0565b9350610d10818560208601610cc1565b610d19816109dd565b840191505092915050565b60006020820190508181036000830152610d3e8184610ceb565b905092915050565b600081519050919050565b600082825260208201905092915050565b6000819050602082019050919050565b610d7b816108c6565b82525050565b6000610d8d8383610d72565b60208301905092915050565b6000602082019050919050565b6000610db182610d46565b610dbb8185610d51565b9350610dc683610d62565b8060005b83811015610df7578151610dde8882610d81565b9750610de983610d99565b925050600181019050610dca565b5085935050505092915050565b60006020820190508181036000830152610e1e8184610da6565b905092915050565b610e2f816108c6565b82525050565b6000602082019050610e4a6000830184610e26565b92915050565b6000604082019050610e656000830185610e26565b8181036020830152610e778184610ceb565b90509392505050565b600081905092915050565b6000610e9682610ca5565b610ea08185610e80565b9350610eb0818560208601610cc1565b80840191505092915050565b6000610ec88284610e8b565b915081905092915050565b7f4e487b7100000000000000000000000000000000000000000000000000000000600052601160045260246000fd5b6000610f0d82610b8e565b91507fffffffffffffffffffffffffffffffffffffffffffffffffffffffffffffffff8203610f3f57610f3e610ed3565b5b600182019050919050565b7f4e487b7100000000000000000000000000000000000000000000000000000000600052601260045260246000fd5b6000610f8482610b8e565b9150610f8f83610b8e565b925082610f9f57610f9e610f4a565b5b828204905092915050565b6000610fb582610b8e565b915060008203610fc857610fc7610ed3565b5b600182039050919050565b6000610fde82610b8e565b9150610fe983610b8e565b925082610ff957610ff8610f4a565b5b828206905092915050565b600061100f82610b8e565b915061101a83610b8e565b925082820190508082111561103257611031610ed3565b5b92915050565b7f4e487b7100000000000000000000000000000000000000000000000000000000600052603260045260246000fd5b7f4e487b7100000000000000000000000000000000000000000000000000000000600052602260045260246000fd5b600060028204905060018216806110ae57607f821691505b6020821081036110c1576110c0611067565b5b5091905056fea2646970667358221220362fd16e19fd996a56774840c8a72149c46793a818249e18ebab504ba9f133a264736f6c634300081a0033",
  "linkReferences": {},
  "deployedLinkReferences": {}
}