{
  "_format": "hh-sol-artifact-1",
  "contractName": "Utils",
  "sourceName": "contracts/Education_system.sol",
  "abi": [
    {
      "inputs": [],
      "stateMutability": "nonpayable",
      "type": "constructor"
    },
    {
      "inputs": [
        {
          "internalType": "uint256",
          "name": "value",
          "type": "uint256"
        }
      ],
      "name": "toString",
      "outputs": [
        {
          "internalType": "string",
          "name": "",
          "type": "string"
        }
      ],
      "stateMutability": "pure",
      "type": "function"
    }
  ],
  "bytecode": "0x6080604052348015600f57600080fd5b506104d28061001f6000396000f3fe608060405234801561001057600080fd5b506004361061002b5760003560e01c80636900a3ae14610030575b600080fd5b61004a600480360381019061004591906101fa565b610060565b60405161005791906102b7565b60405180910390f35b6060600082036100a7576040518060400160405280600181526020017f300000000000000000000000000000000000000000000000000000000000000081525090506101ba565b600082905060005b600082146100d95780806100c290610308565b915050600a826100d2919061037f565b91506100af565b60008167ffffffffffffffff8111156100f5576100f46103b0565b5b6040519080825280601f01601f1916602001820160405280156101275781602001600182028036833780820191505090505b5090505b600085146101b357818061013e906103df565b925050600a8561014e9190610408565b603061015a9190610439565b60f81b8183815181106101705761016f61046d565b5b60200101907effffffffffffffffffffffffffffffffffffffffffffffffffffffffffffff1916908160001a905350600a856101ac919061037f565b945061012b565b8093505050505b919050565b600080fd5b6000819050919050565b6101d7816101c4565b81146101e257600080fd5b50565b6000813590506101f4816101ce565b92915050565b6000602082840312156102105761020f6101bf565b5b600061021e848285016101e5565b91505092915050565b600081519050919050565b600082825260208201905092915050565b60005b83811015610261578082015181840152602081019050610246565b60008484015250505050565b6000601f19601f8301169050919050565b600061028982610227565b6102938185610232565b93506102a3818560208601610243565b6102ac8161026d565b840191505092915050565b600060208201905081810360008301526102d1818461027e565b905092915050565b7f4e487b7100000000000000000000000000000000000000000000000000000000600052601160045260246000fd5b6000610313826101c4565b91507fffffffffffffffffffffffffffffffffffffffffffffffffffffffffffffffff8203610345576103446102d9565b5b600182019050919050565b7f4e487b7100000000000000000000000000000000000000000000000000000000600052601260045260246000fd5b600061038a826101c4565b9150610395836101c4565b9250826103a5576103a4610350565b5b828204905092915050565b7f4e487b7100000000000000000000000000000000000000000000000000000000600052604160045260246000fd5b60006103ea826101c4565b9150600082036103fd576103fc6102d9565b5b600182039050919050565b6000610413826101c4565b915061041e836101c4565b92508261042e5761042d610350565b5b828206905092915050565b6000610444826101c4565b915061044f836101c4565b9250828201905080821115610467576104666102d9565b5b92915050565b7f4e487b7100000000000000000000000000000000000000000000000000000000600052603260045260246000fdfea2646970667358221220bd00c2d19d1a8e4a594d06db359c4fdb9526ae9ffae78cd2cc7b2914f99709ec64736f6c634300081a0033",
  "linkReferences": {},
  "deployedLinkReferences": {}
}