{
  "contracts/Education_system.sol": {
    "Utils": {
      "abi": [
        {
          "inputs": [],
          "stateMutability": "nonpayable",
          "type": "constructor"
        },
        {
          "inputs": [
            {
              "internalType": "uint256",
              "name": "value",
              "type": "uint256"
            }
          ],
          "name": "toString",
          "outputs": [
            {
              "internalType": "string",
              "name": "",
              "type": "string"
            }
          ],
          "stateMutability": "pure",
          "type": "function"
        }
      ],
      "evm": {
        "bytecode": {
          "linkReferences": {},
          "object": "6080604052348015600f57600080fd5b506104d28061001f6000396000f3fe608060405234801561001057600080fd5b506004361061002b5760003560e01c80636900a3ae14610030575b600080fd5b61004a600480360381019061004591906101fa565b610060565b60405161005791906102b7565b60405180910390f35b6060600082036100a7576040518060400160405280600181526020017f300000000000000000000000000000000000000000000000000000000000000081525090506101ba565b600082905060005b600082146100d95780806100c290610308565b915050600a826100d2919061037f565b91506100af565b60008167ffffffffffffffff8111156100f5576100f46103b0565b5b6040519080825280601f01601f1916602001820160405280156101275781602001600182028036833780820191505090505b5090505b600085146101b357818061013e906103df565b925050600a8561014e9190610408565b603061015a9190610439565b60f81b8183815181106101705761016f61046d565b5b60200101907effffffffffffffffffffffffffffffffffffffffffffffffffffffffffffff1916908160001a905350600a856101ac919061037f565b945061012b565b8093505050505b919050565b600080fd5b6000819050919050565b6101d7816101c4565b81146101e257600080fd5b50565b6000813590506101f4816101ce565b92915050565b6000602082840312156102105761020f6101bf565b5b600061021e848285016101e5565b91505092915050565b600081519050919050565b600082825260208201905092915050565b60005b83811015610261578082015181840152602081019050610246565b60008484015250505050565b6000601f19601f8301169050919050565b600061028982610227565b6102938185610232565b93506102a3818560208601610243565b6102ac8161026d565b840191505092915050565b600060208201905081810360008301526102d1818461027e565b905092915050565b7f4e487b7100000000000000000000000000000000000000000000000000000000600052601160045260246000fd5b6000610313826101c4565b91507fffffffffffffffffffffffffffffffffffffffffffffffffffffffffffffffff8203610345576103446102d9565b5b600182019050919050565b7f4e487b7100000000000000000000000000000000000000000000000000000000600052601260045260246000fd5b600061038a826101c4565b9150610395836101c4565b9250826103a5576103a4610350565b5b828204905092915050565b7f4e487b7100000000000000000000000000000000000000000000000000000000600052604160045260246000fd5b60006103ea826101c4565b9150600082036103fd576103fc6102d9565b5b600182039050919050565b6000610413826101c4565b915061041e836101c4565b92508261042e5761042d610350565b5b828206905092915050565b6000610444826101c4565b915061044f836101c4565b9250828201905080821115610467576104666102d9565b5b92915050565b7f4e487b7100000000000000000000000000000000000000000000000000000000600052603260045260246000fdfea2646970667358221220bd00c2d19d1a8e4a594d06db359c4fdb9526ae9ffae78cd2cc7b2914f99709ec64736f6c634300081a0033",
          "opcodes": "PUSH1 0x80 PUSH1 0x40 MSTORE CALLVALUE DUP1 ISZERO PUSH1 0xF JUMPI PUSH1 0x0 DUP1 REVERT JUMPDEST POP PUSH2 0x4D2 DUP1 PUSH2 0x1F PUSH1 0x0 CODECOPY PUSH1 0x0 RETURN INVALID PUSH1 0x80 PUSH1 0x40 MSTORE CALLVALUE DUP1 ISZERO PUSH2 0x10 JUMPI PUSH1 0x0 DUP1 REVERT JUMPDEST POP PUSH1 0x4 CALLDATASIZE LT PUSH2 0x2B JUMPI PUSH1 0x0 CALLDATALOAD PUSH1 0xE0 SHR DUP1 PUSH4 0x6900A3AE EQ PUSH2 0x30 JUMPI JUMPDEST PUSH1 0x0 DUP1 REVERT JUMPDEST PUSH2 0x4A PUSH1 0x4 DUP1 CALLDATASIZE SUB DUP2 ADD SWAP1 PUSH2 0x45 SWAP2 SWAP1 PUSH2 0x1FA JUMP JUMPDEST PUSH2 0x60 JUMP JUMPDEST PUSH1 0x40 MLOAD PUSH2 0x57 SWAP2 SWAP1 PUSH2 0x2B7 JUMP JUMPDEST PUSH1 0x40 MLOAD DUP1 SWAP2 SUB SWAP1 RETURN JUMPDEST PUSH1 0x60 PUSH1 0x0 DUP3 SUB PUSH2 0xA7 JUMPI PUSH1 0x40 MLOAD DUP1 PUSH1 0x40 ADD PUSH1 0x40 MSTORE DUP1 PUSH1 0x1 DUP2 MSTORE PUSH1 0x20 ADD PUSH32 0x3000000000000000000000000000000000000000000000000000000000000000 DUP2 MSTORE POP SWAP1 POP PUSH2 0x1BA JUMP JUMPDEST PUSH1 0x0 DUP3 SWAP1 POP PUSH1 0x0 JUMPDEST PUSH1 0x0 DUP3 EQ PUSH2 0xD9 JUMPI DUP1 DUP1 PUSH2 0xC2 SWAP1 PUSH2 0x308 JUMP JUMPDEST SWAP2 POP POP PUSH1 0xA DUP3 PUSH2 0xD2 SWAP2 SWAP1 PUSH2 0x37F JUMP JUMPDEST SWAP2 POP PUSH2 0xAF JUMP JUMPDEST PUSH1 0x0 DUP2 PUSH8 0xFFFFFFFFFFFFFFFF DUP2 GT ISZERO PUSH2 0xF5 JUMPI PUSH2 0xF4 PUSH2 0x3B0 JUMP JUMPDEST JUMPDEST PUSH1 0x40 MLOAD SWAP1 DUP1 DUP3 MSTORE DUP1 PUSH1 0x1F ADD PUSH1 0x1F NOT AND PUSH1 0x20 ADD DUP3 ADD PUSH1 0x40 MSTORE DUP1 ISZERO PUSH2 0x127 JUMPI DUP2 PUSH1 0x20 ADD PUSH1 0x1 DUP3 MUL DUP1 CALLDATASIZE DUP4 CALLDATACOPY DUP1 DUP3 ADD SWAP2 POP POP SWAP1 POP JUMPDEST POP SWAP1 POP JUMPDEST PUSH1 0x0 DUP6 EQ PUSH2 0x1B3 JUMPI DUP2 DUP1 PUSH2 0x13E SWAP1 PUSH2 0x3DF JUMP JUMPDEST SWAP3 POP POP PUSH1 0xA DUP6 PUSH2 0x14E SWAP2 SWAP1 PUSH2 0x408 JUMP JUMPDEST PUSH1 0x30 PUSH2 0x15A SWAP2 SWAP1 PUSH2 0x439 JUMP JUMPDEST PUSH1 0xF8 SHL DUP2 DUP4 DUP2 MLOAD DUP2 LT PUSH2 0x170 JUMPI PUSH2 0x16F PUSH2 0x46D JUMP JUMPDEST JUMPDEST PUSH1 0x20 ADD ADD SWAP1 PUSH31 0xFFFFFFFFFFFFFFFFFFFFFFFFFFFFFFFFFFFFFFFFFFFFFFFFFFFFFFFFFFFFFF NOT AND SWAP1 DUP2 PUSH1 0x0 BYTE SWAP1 MSTORE8 POP PUSH1 0xA DUP6 PUSH2 0x1AC SWAP2 SWAP1 PUSH2 0x37F JUMP JUMPDEST SWAP5 POP PUSH2 0x12B JUMP JUMPDEST DUP1 SWAP4 POP POP POP POP JUMPDEST SWAP2 SWAP1 POP JUMP JUMPDEST PUSH1 0x0 DUP1 REVERT JUMPDEST PUSH1 0x0 DUP2 SWAP1 POP SWAP2 SWAP1 POP JUMP JUMPDEST PUSH2 0x1D7 DUP2 PUSH2 0x1C4 JUMP JUMPDEST DUP2 EQ PUSH2 0x1E2 JUMPI PUSH1 0x0 DUP1 REVERT JUMPDEST POP JUMP JUMPDEST PUSH1 0x0 DUP2 CALLDATALOAD SWAP1 POP PUSH2 0x1F4 DUP2 PUSH2 0x1CE JUMP JUMPDEST SWAP3 SWAP2 POP POP JUMP JUMPDEST PUSH1 0x0 PUSH1 0x20 DUP3 DUP5 SUB SLT ISZERO PUSH2 0x210 JUMPI PUSH2 0x20F PUSH2 0x1BF JUMP JUMPDEST JUMPDEST PUSH1 0x0 PUSH2 0x21E DUP5 DUP3 DUP6 ADD PUSH2 0x1E5 JUMP JUMPDEST SWAP2 POP POP SWAP3 SWAP2 POP POP JUMP JUMPDEST PUSH1 0x0 DUP2 MLOAD SWAP1 POP SWAP2 SWAP1 POP JUMP JUMPDEST PUSH1 0x0 DUP3 DUP3 MSTORE PUSH1 0x20 DUP3 ADD SWAP1 POP SWAP3 SWAP2 POP POP JUMP JUMPDEST PUSH1 0x0 JUMPDEST DUP4 DUP2 LT ISZERO PUSH2 0x261 JUMPI DUP1 DUP3 ADD MLOAD DUP2 DUP5 ADD MSTORE PUSH1 0x20 DUP2 ADD SWAP1 POP PUSH2 0x246 JUMP JUMPDEST PUSH1 0x0 DUP5 DUP5 ADD MSTORE POP POP POP POP JUMP JUMPDEST PUSH1 0x0 PUSH1 0x1F NOT PUSH1 0x1F DUP4 ADD AND SWAP1 POP SWAP2 SWAP1 POP JUMP JUMPDEST PUSH1 0x0 PUSH2 0x289 DUP3 PUSH2 0x227 JUMP JUMPDEST PUSH2 0x293 DUP2 DUP6 PUSH2 0x232 JUMP JUMPDEST SWAP4 POP PUSH2 0x2A3 DUP2 DUP6 PUSH1 0x20 DUP7 ADD PUSH2 0x243 JUMP JUMPDEST PUSH2 0x2AC DUP2 PUSH2 0x26D JUMP JUMPDEST DUP5 ADD SWAP2 POP POP SWAP3 SWAP2 POP POP JUMP JUMPDEST PUSH1 0x0 PUSH1 0x20 DUP3 ADD SWAP1 POP DUP2 DUP2 SUB PUSH1 0x0 DUP4 ADD MSTORE PUSH2 0x2D1 DUP2 DUP5 PUSH2 0x27E JUMP JUMPDEST SWAP1 POP SWAP3 SWAP2 POP POP JUMP JUMPDEST PUSH32 0x4E487B7100000000000000000000000000000000000000000000000000000000 PUSH1 0x0 MSTORE PUSH1 0x11 PUSH1 0x4 MSTORE PUSH1 0x24 PUSH1 0x0 REVERT JUMPDEST PUSH1 0x0 PUSH2 0x313 DUP3 PUSH2 0x1C4 JUMP JUMPDEST SWAP2 POP PUSH32 0xFFFFFFFFFFFFFFFFFFFFFFFFFFFFFFFFFFFFFFFFFFFFFFFFFFFFFFFFFFFFFFFF DUP3 SUB PUSH2 0x345 JUMPI PUSH2 0x344 PUSH2 0x2D9 JUMP JUMPDEST JUMPDEST PUSH1 0x1 DUP3 ADD SWAP1 POP SWAP2 SWAP1 POP JUMP JUMPDEST PUSH32 0x4E487B7100000000000000000000000000000000000000000000000000000000 PUSH1 0x0 MSTORE PUSH1 0x12 PUSH1 0x4 MSTORE PUSH1 0x24 PUSH1 0x0 REVERT JUMPDEST PUSH1 0x0 PUSH2 0x38A DUP3 PUSH2 0x1C4 JUMP JUMPDEST SWAP2 POP PUSH2 0x395 DUP4 PUSH2 0x1C4 JUMP JUMPDEST SWAP3 POP DUP3 PUSH2 0x3A5 JUMPI PUSH2 0x3A4 PUSH2 0x350 JUMP JUMPDEST JUMPDEST DUP3 DUP3 DIV SWAP1 POP SWAP3 SWAP2 POP POP JUMP JUMPDEST PUSH32 0x4E487B7100000000000000000000000000000000000000000000000000000000 PUSH1 0x0 MSTORE PUSH1 0x41 PUSH1 0x4 MSTORE PUSH1 0x24 PUSH1 0x0 REVERT JUMPDEST PUSH1 0x0 PUSH2 0x3EA DUP3 PUSH2 0x1C4 JUMP JUMPDEST SWAP2 POP PUSH1 0x0 DUP3 SUB PUSH2 0x3FD JUMPI PUSH2 0x3FC PUSH2 0x2D9 JUMP JUMPDEST JUMPDEST PUSH1 0x1 DUP3 SUB SWAP1 POP SWAP2 SWAP1 POP JUMP JUMPDEST PUSH1 0x0 PUSH2 0x413 DUP3 PUSH2 0x1C4 JUMP JUMPDEST SWAP2 POP PUSH2 0x41E DUP4 PUSH2 0x1C4 JUMP JUMPDEST SWAP3 POP DUP3 PUSH2 0x42E JUMPI PUSH2 0x42D PUSH2 0x350 JUMP JUMPDEST JUMPDEST DUP3 DUP3 MOD SWAP1 POP SWAP3 SWAP2 POP POP JUMP JUMPDEST PUSH1 0x0 PUSH2 0x444 DUP3 PUSH2 0x1C4 JUMP JUMPDEST SWAP2 POP PUSH2 0x44F DUP4 PUSH2 0x1C4 JUMP JUMPDEST SWAP3 POP DUP3 DUP3 ADD SWAP1 POP DUP1 DUP3 GT ISZERO PUSH2 0x467 JUMPI PUSH2 0x466 PUSH2 0x2D9 JUMP JUMPDEST JUMPDEST SWAP3 SWAP2 POP POP JUMP JUMPDEST PUSH32 0x4E487B7100000000000000000000000000000000000000000000000000000000 PUSH1 0x0 MSTORE PUSH1 0x32 PUSH1 0x4 MSTORE PUSH1 0x24 PUSH1 0x0 REVERT INVALID LOG2 PUSH5 0x6970667358 0x22 SLT KECCAK256 0xBD STOP 0xC2 0xD1 SWAP14 BYTE DUP15 BLOBBASEFEE MSIZE 0x4D MOD 0xDB CALLDATALOAD SWAP13 0x4F 0xDB SWAP6 0x26 0xAE SWAP16 STATICCALL 0xE7 DUP13 0xD2 0xCC PUSH28 0x2914F99709EC64736F6C634300081A00330000000000000000000000 "
        },
        "methodIdentifiers": {
          "toString(uint256)": "6900a3ae"
        }
      }
    }
  }
}